:1000000016EF00F00000000000EF00F0000000001C
:0A0010000000000000000000F3D71C
:10001C000900F5CFE6FF0006FBE10106F9E112004D
:10002C003F0E156E060E166E5B0E176E4F0E186E8B
:10003C00660E196E6D0E1A6E7D0E1B6E070E1C6E03
:10004C007F0E1D6E670E1E6E946A826A956A836AB5
:10005C00000E021802E10A0E011804E1016A026A9C
:10006C00034A042A000E041802E1060E031802E1EA
:10007C00036A046A056A066A800E0618006E800E12
:10008C00005C02E1190E055C2BE2010E836E150E6D
:10009C000124E96E000E0220EA6EEECF82FF340ED0
:1000AC000C6EF10E0D6E0D2EFED70C2EFCD7000033
:1000BC000000020E836E150E0324E96E000E042060
:1000CC00EA6EEECF82FF340E0C6EF10E0D6E0D2E1D
:1000DC00FED70C2EFCD700000000054A062ACCD710
:0800EC00014A022AB5D7FFD733
:020000040030CA
:0D000100021F1EFF8381FF0FC00FE00F40A4
:00000001FF
