:1000000016EF00F00000000000EF00F0000000001C
:0A0010000000000000000000F3D71C
:10001C000900F5CFE6FF0006FBE10106F9E112004D
:10002C00010E156E800E166E946A826A1650152497
:10003C00826E030E0B6E080E0C6E770E0D6E0D2E6F
:10004C00FED70C2EFCD70B2EFAD7826A020E0B6E43
:10005C00040E0C6EBA0E0D6E0D2EFED70C2EFCD7A8
:10006C000B2EFAD7000015C001F00136019001C02B
:10007C0015F01632169E0150800A04E1010E156E21
:08008C00800E166ED3D7FFD7DA
:020000040030CA
:0D000100021F1EFF8381FF0FC00FE00F40A4
:00000001FF
