:04000000A2EF0AF071
:1000080000C018F001C017F00CC016F00DC015F0B4
:10001800F5CF1CF0F8CF19F0F7CF1AF0F6CF1BF098
:10002800F2A406D0F2940B0ED76EDC0ED66EC28404
:100038009EACBDD09E9CC4CF01F0006AC350002680
:10004800000E01229CEC06F000C027F001C028F049
:1000580002C029F003C02AF0E50E046EFF0E056EFB
:100068001F0E066E770E076EDBD900C027F001C0A1
:1000780028F002C029F003C02AF000C004F001C033
:1000880005F002C006F003C007F0000E006E000E77
:10009800016E200E026E810E036E1AEC07F0000E40
:1000A800046E000E056E000E066E7F0E076E99EC4C
:1000B80006F0000E046ED60E056E030E066E910E47
:1000C800076EAED900C02FF001C030F002C031F089
:1000D80003C032F0000E046E600E056E6A0E066EE6
:1000E8008C0E076E1AEC07F000C042F001C043F016
:1000F80002C044F003C045F015EC08F08F0E046E02
:10010800BA0E056E040E066E730E076E89D9D00EF0
:10011800046E440E056E580E066E760E076E4EDAA5
:1001280000C004F001C005F002C006F003C007F0EB
:10013800000E006E000E016E000E026E7F0E036E42
:100148001AEC07F000C02BF001C02CF002C02DF013
:1001580003C02EF0330E046E930E056E080E066E65
:10016800870E076E99EC06F000C02BF001C02CF04A
:1001780002C02DF003C02EF0010E5D6EE1D92BC038
:1001880042F02CC043F02DC044F02EC045F0330E91
:10019800466E000E476E96EC08F0010E426E010E98
:1001A800436E330E446E000E456ED7EC07F01CC04C
:1001B800F5FF19C0F8FF1AC0F7FF1BC0F6FF18C0FB
:1001C80000F017C001F016C00CF015C00DF01100BA
:1001D8000B820BAEF6EF00F0036802680168006856
:0801E8000A360232FF0E12007C
:0E01F000026A016A006A086A036A000E1200C1
:1001FE000B840BAE0AEF01F0010E036E026A016A68
:0A020E00006A0A360232FF0E1200E9
:080218000AAE029E000E120066
:0A022000210E0D6E0D2EFED7120008
:10022A000CB057EF01F00CA2FDEF01F00E6A000EC0
:10023A0002646EEF01F0F00E0214D8A439EF01F057
:10024A00023A01380F0B02260138F00B016E003812
:10025A000F0B01260038F00B006E08380F0B002632
:10026A000838F00B086E0E84D89002BE52EF01F0E7
:10027A0008360036013602360E2A02BE52EF01F067
:10028A0008360036013602360E2A02BE52EF01F057
:10029A0008360036013602360E2A0E500364F3EF92
:1002AA0001F0035E0BBC08AEF8EF01F0D880800EB7
:1002BA0008640030000E002201220222D8A0F8EFC2
:1002CA0001F0023201320032034AFDEF01F0F8EF89
:1002DA0001F001C002F000C001F008C000F0086A95
:1002EA00000E0E860264A5EF01F0F00E0214D8A4E7
:1002FA008DEF01F0023A01380F0B02260138F00B9C
:10030A00016E00380F0B01260038F00B006E0E84C8
:10031A00D89002BE52EF01F00036013602360E2A9C
:10032A0002BE52EF01F00036013602360E2A02BE34
:10033A0052EF01F00036013602360E2A52EF01F072
:10034A0001C002F000C001F0006A000E0E960E888D
:10035A000264D2EF01F0F00E0214D8A4BDEF01F04E
:10036A00023A01380F0B02260138F00B016E0E8497
:10037A00D89002BE52EF01F0013602360E2A02BEB2
:10038A0052EF01F0013602360E2A02BE52EF01F098
:10039A00013602360E2A52EF01F001C002F0016A5C
:1003AA00000E0E86026402EF02F0F00E0214D8A4C8
:1003BA00E1EF01F0023A0E84D89002BE52EF01F04A
:1003CA0002360E2A02BE52EF01F002360E2A02BE91
:1003DA0052EF01F002360E2A52EF01F0010E0C6EB6
:1003EA0009DF05EF02F0020E0C6E11DF05EF02F0D5
:1003FA00040E0C6EECDE05EF02F0080E0C6EF3DE56
:02040A001200DE
:10040C000F0E0C6E470E0D6E0D2EFED70C2EFCD75C
:06041C00000000001200C8
:06042200000000001200C2
:10042800086A096A000E0762036499EF02F0025035
:1004380006180A6E075003267E0ED8A02AEF02F08F
:10044800035ED8B09DEF02F02EEF02F0035ED8A055
:10045800A1EF02F0028E068E02C00EF001C00BF072
:1004680000C00DF000500402F4CF0CF0015005025A
:10047800F4CF00F0F3CF08F00402F3500C26F45048
:100488000822000E00220D500502F3500C26F450ED
:100498000822000E002202500402F3500826F450ED
:1004A800002202500502016A000E0122F3500026C4
:1004B800F45001220D500602F3500826F450002291
:1004C800026A000E012202220B500602F350002697
:1004D800F4500122000E02220E500602F3500126AB
:1004E800F450022202BE81EF02F0083600360136CF
:1004F80002360306D8B4A1EF02F094EF02F0D880D8
:10050800800E08640030000E002201220222D8A0CA
:1005180094EF02F0023201320032034A9DEF02F0FA
:100528000AAE029E000EA3EF02F0010E5DDEA3EFFD
:1005380002F0020E4DDEA3EF02F0040E5CDE1200A4
:100548005DBE02D0839E01D0838E5DBC02D0839CA9
:1005580001D0838C5DBA02D0839A01D0838A5DB8BA
:1005680002D0839801D0838841B002D0838401D01F
:100578008394838652DF83965DB602D0839E01D032
:10058800838E5DB402D0839C01D0838C5DB202D08F
:10059800839A01D0838A5DB002D0839801D0838882
:1005A80041B002D0838401D08394838636DF83965A
:0C05B80041A002D027DF01D02FDE12008E
:1005C400025006180E6E086A096A0B6A0350076423
:1005D400D5EF03F006500A6E068E028E03500B6EA2
:1005E4000750036E000E0B6425EF03F00B50075EFB
:1005F400D8B4C6EF03F0070E076494EF03F0075E68
:1006040000C008F001C000F002C001F0026A074E09
:10061400C6EF03F0076469EF03F0075E00C008F05B
:1006240001C000F0016A074EC6EF03F0076447EF0C
:1006340003F0075E00C008F0006A074EC6EF03F03F
:1006440007642EEF03F00AC002F005C001F004C0F5
:1006540000F0086AF0EF04F0030E076439EF03F0CA
:10066400075E08380F0B086E074EC6EF03F0D890EC
:100674000832074EC6EF03F0D8900832074EC6EF93
:1006840003F0D8900832C6EF03F0030E076458EF66
:1006940003F0075E08380F0B086E0038F00B0826CD
:1006A40000380F0B006E074EC6EF03F0D8900032EF
:1006B4000832074EC6EF03F0D89000320832074ED6
:1006C400C6EF03F0D89000320832C6EF03F0030EF1
:1006D400076480EF03F0075E08380F0B086E0038DC
:1006E400F00B082600380F0B006E0138F00B0026C3
:1006F40001380F0B016E074EC6EF03F0D89001329C
:1007040000320832074EC6EF03F0D89001320032AF
:100714000832074EC6EF03F0D89001320032083297
:10072400C6EF03F0030E0764B1EF03F0075E083869
:100734000F0B086E0038F00B082600380F0B006E04
:100744000138F00B002601380F0B016E0238F00B54
:10075400012602380F0B026E074EC6EF03F0D89045
:100764000232013200320832074EC6EF03F0D8904D
:100774000232013200320832074EC6EF03F0D8903D
:100784000232013200320832096A000E0EAEBAEFAC
:1007940004F0081E001E011E021E082A0022012267
:1007A4000222BAEF04F00750D8A4DBEF03F0F0EF15
:1007B40004F0096A02C00AF0028E068E0750035C38
:1007C400076ED8B4ADEF04F0070E07647BEF04F0B6
:1007D400075E0450096E0550046E0650056E066AE5
:1007E400074EADEF04F0070E076450EF04F0075E08
:1007F4000450096E0550046E056A074EADEF04F00F
:10080400070E07642EEF04F0075E0450096E046AB5
:10081400074EADEF04F0070E076415EF04F00AC0AD
:1008240002F0F0EF04F0030E076420EF04F0075E1B
:1008340009380F0B096E074EADEF04F0D89009325A
:10084400074EADEF04F0D8900932074EADEF04F037
:10085400D8900932ADEF04F0030E07643FEF04F0C3
:10086400075E09380F0B096E0438F00B09260438AB
:100874000F0B046E074EADEF04F0D890043209322A
:10088400074EADEF04F0D89004320932074EADEFB5
:1008940004F0D89004320932ADEF04F0030E07647B
:1008A40067EF04F0075E09380F0B096E0438F00B8C
:1008B400092604380F0B046E0538F00B042605389E
:1008C4000F0B056E074EADEF04F0D89005320432DD
:1008D4000932074EADEF04F0D890053204320932E4
:1008E400074EADEF04F0D890053204320932ADEF73
:1008F40004F0030E076498EF04F0075E09380F0B49
:10090400096E0438F00B092604380F0B046E053801
:10091400F00B042605380F0B056E0638F00B052680
:1009240006380F0B066E074EADEF04F0D890063272
:10093400053204320932074EADEF04F0D890063286
:10094400053204320932074EADEF04F0D890063276
:10095400053204320932086A000E0EAEBAEF04F012
:10096400091E041E051E061E092A0422052206224B
:100974000950082604500022055001220650022284
:100984000EBED1EF04F0D8A0E0EF04F00232013241
:1009940000320832033EE0EF04F0EAEF04F0D8B08E
:1009A400E5EF04F0000E081E001E011E021E082AB8
:1009B4000022012202220A7EE5EF04F0010E0C6EF1
:1009C40032DCF2EF04F0020E0C6E2DDCF2EF04F0D8
:1009D400040E0C6EECEC00F0F2EF04F0000E0C6E62
:0209E4001200FF
:1009E6000C6A0E6A0250D8A40CEF05F001C002F0A2
:1009F60000C001F0006A0E860250D8A40CEF05F084
:100A060001C002F0016A0E960E880250D8B41EEF9D
:100A160005F00E50035ED8A4D8A024EF05F0D890B8
:100A260002BE2AEF05F0003601360236032E13EF1A
:100A360005F024EF05F0010E0C6EF8EC00F02EEF39
:100A460005F0020E0C6EFFEC00F02EEF05F0040E22
:080A56000C6E0CEC01F0120023
:100A5E00086A080E0C6E003408360450085ED8B0D2
:0E0A6E0002D00826D89000360C2EF5D71200C4
:100A7C0057C000F058C001F0000E58BEFF0E026EB9
:100A8C00036E0036009001360236033600360090B5
:100A9C0001360236033654500024F66E55500120B0
:100AAC00F76E56500220F86E0900F5CF59F0090088
:100ABC00F5CF5AF00900F5CF5BF00900F5CF5CF0EB
:100ACC005750581047E050C000F051C001F052C0D0
:100ADC0002F053C003F059C004F05AC005F05BC0DB
:100AEC0006F05CC007F09ADC010E575E000E585AF7
:100AFC0057C004F058C005F0000E58BEFF0E066E2D
:100B0C00076E043604900536063607360436049014
:100B1C0005360636073654500424F66E555005201B
:100B2C00F76E56500620F86E0900F5CF04F0090058
:100B3C00F5CF05F00900F5CF06F00900F5CF07F069
:100B4C003BDD00C059F001C05AF002C05BF003C09D
:100B5C005CF0B6D759C000F05AC001F05BC002F08F
:060B6C005CC003F0120062
:100B720000C008F00150006E016A026A036A0B6A43
:100B82000C6A016A026A036A960E036E0A6A00AE72
:100B9200D1EF05F0081E001E082AD8B4002A0A8EDA
:100BA20000C001F008C000F0086A026A1BDF1200F0
:100BB20050C004F051C005F004C002F005C003F0BB
:100BC200044A052A52C000F053C001F0524A532A87
:100BD20000C0E9FF01C0EAFF02C0E1FF03C0E2FF7B
:100BE200EECFE6FF02C0E9FF03C0EAFFEE5201E0EA
:0C0BF200E3D750C000F051C001F0120029
:100BFE000A6A0350D8A40A800750D8A40A820A5061
:100C0E00D8B462EF06F0030AD8B41BEF06F00AB0B0
:100C1E0016EF06F006AE60EF06F05EEF06F002AEDF
:100C2E005EEF06F060EF06F00250800B0A6E029E39
:100C3E000650800B069E0A18D8B42CEF06F00A5008
:100C4E00D8B45EEF06F060EF06F00750035CD8B440
:100C5E0036EF06F0D8A052EF06F058EF06F0065029
:100C6E00025CD8B440EF06F0D8A052EF06F058EF71
:100C7E0006F00550015CD8B44AEF06F0D8A052EF4A
:100C8E0006F058EF06F00450005CD8B462EF06F0A0
:100C9E00D8B058EF06F00A52D8B460EF06F05EEF07
:100CAE0006F00A52D8B45EEF06F060EF06F0D88078
:0E0CBE001200D8901200D880D88412001200C4
:080CCC000B6A0B86FF0E1200FB
:0C0CD400419050C05DF036DC4180120001
:100CE000500E046E000E056E030E0424E96E000E15
:100CF0000520EA6E7E0EEE5C006E016A000E015A5F
:100D000054C0E1FF55C0E2FF00C0E6FF01C0E6FFAE
:100D1000030E0424E16E000E0520E26E7E0EE66EE8
:100D200050C000F051C001F052C002F053C003F0B7
:020D30001200AF
:060D3200067E47DC120002
:100D38000050086E0150006E016A026A036A0B6A6D
:100D48000C6A960E036E0A6A00C001F008C000F033
:080D5800086A026A44DE120081
:100D6000959695949598959A959C959E839683943F
:100D7000839E839C839A839806EC02F006EC02F033
:100D800006EC02F0838A8388838611EC02F0839656
:100D900006EC02F0838611EC02F0839606EC02F07A
:100DA000838611EC02F0839606EC02F0839883862A
:100DB00011EC02F0839606EC02F0838611EC02F04F
:100DC0008396839A838E838611EC02F0839606ECD9
:100DD00002F0839E8388838611EC02F083968398C9
:100DE000838611EC02F0839606EC02F0838611EC08
:100DF00002F083968388838611EC02F0839606ECDA
:100E000002F08398838611EC02F08396838E838CA4
:100E1000838A8388838611EC02F0839606EC02F0C5
:040E200041801200FB
:100E24000900F5CFE6FF0006FBE10106F9E1120037
:100E34000450000A12E10550000A0FE10650000AAE
:100E44000CE10750000A09E1FF0E006EFF0E016E6F
:100E54007F0E026EFF0E036EA7D0086A096A075060
:100E6400D8B4C5EF07F00350D8B4C9EF07F0025067
:100E740006180A6E028E068E0E6A02C008F001C0C1
:100E84000CF000C00DF004500D5E0550D8A0053CD8
:100E94000C5E0650D8A0063C085E086A0C6A0D6A0F
:100EA400D8A05CEF07F0D890023201320032083249
:100EB400010E0E6E0750035ED8A069EF07F07E0E98
:100EC4000E240326D8B0CEEF07F06FEF07F07E0EA6
:100ED4000E240326D8A0D3EF07F0180E0B6E0D36A0
:100EE4000C3608360036013602360E360450005EE3
:100EF4000550D8A0053C015E0650D8A0063C025E11
:100F040006340E120EA08AEF07F00D8095EF07F05D
:100F1400045000260550D8B0053C01260650D8B030
:100F2400062802260D900B2E71EF07F0BBEF07F099
:100F3400D8900036013602360E360450005E055055
:100F4400D8A0053C015E0650D8A0063C025E0634DB
:100F54000E10010B0D26D8B00C2AD8B4082AD8A438
:100F6400BBEF07F008320C320D32032AD8B4CEEFAF
:100F740007F00AAE089E0850026E0C50016E0D5028
:100F8400006ED6EF07F0010E9FDED6EF07F0020EDB
:100F9400F8EC00F0D6EF07F0040EECEC00F0D6EF1E
:0A0FA40007F0080EFFEC00F0120049
:100FAE000FD0800E426E19D0C00E426E16D0940E27
:100FBE00426E13D0D40E426E10D0800E426E0DD003
:100FCE004250010AEEE04250020AEEE04250030A9D
:100FDE00EEE04250040AEEE0F0D74304006E4250B9
:100FEE00002600C042F000C05DF0A4EC02F041907B
:100FFE00466A46504424E96E000E4520EA6EEE52D3
:10100E000BE046504424E96E000E4520EA6EEECF0A
:0C101E0050F059DE462AEDD74180120048
:10102A0042C004F043C005F044C006F045C007F0D2
:10103A00006A016A026A036ADDDD000ED8B0010E99
:10104A00006E005205E0006A016A026A036A68D00B
:10105A0042C050F043C051F044C052F045C053F072
:10106A00460E546E000E556E36DE000E046E000EED
:10107A00056E000E066E800E076E14EC02F0000E6E
:10108A00046E000E056E000E066E7F0E076E4CDEB5
:10109A0000C042F001C043F002C044F003C045F072
:1010AA00010E465E000E475A00C050F001C051F0D2
:1010BA0002C052F003C053F0700E546E150E556EF6
:1010CA00000E566E080E576E000E586ED2DC00C027
:1010DA0048F001C049F002C04AF003C04BF048C0D2
:1010EA0042F049C043F04AC044F04BC045F046C004
:1010FA0000F047C001F038DD180E046E720E056E5E
:10110A00310E066E7E0E076E14EC02F048C004F033
:10111A0049C005F04AC006F04BC007F0E2EC02F005
:02112A001200B1
:10112C004E6A4F6A42C04AF043C04BF044C04CF088
:10113C0045C04DF04D50FF0A08E14C50FF0A05E147
:10114C004B50FF0A02E14A50FF0A0CE146C050F036
:10115C0047C051F01D0E526E000E536E24DD030E6F
:10116C00006EE9D1010E486E4CAE0ED0800E4C18BC
:10117C00006E00C04CF0482A46C0E1FF47C0E2FFB9
:10118C002D0EE66E464A472A000E006E4D1808E1F9
:10119C0000504C1805E100504B1802E14A50000A6F
:1011AC000BE146C050F047C051F0250E526E000EB8
:1011BC00536EF9DC006ABFD14D50FF0A08E14C5068
:1011CC00000A05E14B50000A02E14A50000A0CE10A
:1011DC0046C050F047C051F0210E526E000E536EB7
:1011EC00E2DC48C000F0A7D1000E046E000E056EC4
:1011FC00000E066E7F0E076E4AC000F04BC001F069
:10120C004CC002F04DC003F0F4DC010ED8B0000E5F
:10121C00006E00521CE04AC000F04BC001F04CC004
:10122C0002F04DC003F0000E046E000E056E200E91
:10123C00066E820E076E14EC02F000C04AF001C07C
:10124C004BF002C04CF003C04DF04F06CDD7000E52
:10125C00046E000E056E200E066E820E076E4AC0DE
:10126C0000F04BC001F04CC002F04DC003F0C1DCEB
:10127C00000ED8B0010E006E00521CE04AC000F007
:10128C004BC001F04CC002F04DC003F0CD0E046E0B
:10129C00CC0E056E4C0E066E7B0E076E14EC02F037
:1012AC0000C04AF001C04BF002C04CF003C04DF03E
:1012BC004F2ACDD7FF0E4A14086EFF0E4B14096E41
:1012CC007F0E4C140A6E000E4D140B6E08C004F009
:1012DC0009C005F00AC006F00BC007F004360490F4
:1012EC00053606360736000E4A14006E000E4B14F7
:1012FC00016E000E4C14026EFF0E4D14036E00C0F6
:10130C004AF001C04BF002C04CF003C04DF0045049
:10131C004A10006E05504B10016E06504C10026EB8
:10132C0007504D10036E00C04AF001C04BF002C0D4
:10133C004CF003C04DF07F0E4D5C006E00C049F0C8
:10134C00010E4D6E00C004F04AC000F04BC001F01D
:10135C004CC002F04DC003F0045007E00036009082
:10136C00013602360336FF0FF8D700C04AF001C031
:10137C004BF002C04CF003C04DF046C0E1FF47C03B
:10138C00E2FF4D50300FE66E464A472A800E4F184A
:10139C00006E800E010A005C08E3800E060A006EE7
:1013AC00800E4F18005C01E30AD046C0E1FF47C035
:1013BC00E2FF2E0EE66E464A472A010E4E6E060ED0
:1013CC00496E4950000A54E04D6A4AC000F04BC0C7
:1013DC0001F04CC002F04DC003F000360090013615
:1013EC0002360336003600900136023603364A5078
:1013FC0000264B5001224C5002224D50032200C0BB
:10140C004AF001C04BF002C04CF003C04DF04AC092
:10141C0000F04BC001F04CC002F04DC003F00036A0
:10142C00009001360236033600C04AF001C04BF082
:10143C0002C04CF003C04DF046C0E1FF47C0E2FFD4
:10144C004D50300FE66E464A472A4E50000A0EE1C8
:10145C004F064F50000A0AE146C0E1FF47C0E2FFC9
:10146C002E0EE66E464A472A010E4E6E4906A9D745
:10147C00FF0E4624E96EFF0E4720EA6EEE50300A4E
:10148C0005E1010E465E000E475AF2D7FF0E4624C8
:10149C00E96EFF0E4720EA6EEE502E0A04E1010EB3
:1014AC00465E000E475A4F50000A3FE046C0E1FF2F
:1014BC0047C0E2FF650EE66E464A472A800E4F187B
:1014CC00006E800E000A005C0BE246C0E1FF47C0D4
:1014DC00E2FF2D0EE66E464A472A4F5000084F6E2B
:1014EC004FC049F04F5009080FE20A0E046E49C074
:1014FC0000F02FEC05F046C0E1FF47C0E2FF0050C2
:10150C00300FE66E464A472A0A0E046E49C000F0B8
:10151C002FEC05F008C000F046C0E1FF47C0E2FF29
:10152C000050300FE66E464A472A46C0E1FF47C0DE
:08153C00E2FFE66A006A1200FA
:10154400D5EC0AF09282490EC26EC00EC16E06DC62
:101554009E9C9D8CF28CF294F28AF28E830ED56E50
:0C1564000B0ED76EDC0ED66EFFD7FFD743
:1015AA0010EE1DF0160E006E010E016E940EF66E10
:0E15BA00150EF76E000EF86E12EC07F0120020
:10157000FFE65B5DC4FF7F7E80EFFF7D90E1297D0C
:10158000EC82F67C82AD2B7C0E3CC37B87D1137A38
:041590004178D37754
:041594004E614E0056
:04159800494E460072
:02159C0030001D
:04159E000000000049
:0415A2000000000045
:0415A6000000000041
:020000040030CA
:0D000100220F0EFF0181FF0FC00FE00F4026
:00000001FF
