:04000000EBEF04F02E
:1000080000C018F001C017F00CC016F00DC015F0B4
:10001800C3CF23F0000E246EC4CF01F0006A235032
:1000280000262450012200C023F001C024F076DA13
:10003800FE0E046E270E056E200E066E770E076EF6
:1000480016D900C025F001C026F002C027F003C071
:1000580028F0010E4A6E5FD825C038F026C039F066
:1000680027C03AF028C03BF0290E3C6E000E3D6ECA
:10007800A6DA010E386E010E396E290E3A6E000EA0
:100088003B6E60DA0B0E0B6E260E0C6E5D0E0D6E5F
:100098000D2EFED70C2EFCD70B2EFAD70000000031
:1000A800C2849E9C18C000F017C001F016C00CF066
:0600B80015C00DF011005F
:1000BE000F0E0C6E470E0D6E0D2EFED70C2EFCD7AE
:0600CE000000000012001A
:0600D40000000000120014
:0A00DA00210E0D6E0D2EFED7120050
:1000E4000B820BAE7CEF00F00368026801680068C5
:0800F4000A360232FF0E120071
:1000FC000B840BAE89EF00F0010E036E026A016AED
:0A010C00006A0A360232FF0E1200EC
:080116000AAE029E000E120069
:10011E004ABE02D0839E01D0838E4ABC02D0839CFD
:10012E0001D0838C4ABA02D0839A01D0838A4AB80E
:10013E0002D0839801D0838837B002D0838401D057
:10014E0083948386C0DF83964AB602D0839E01D005
:10015E00838E4AB402D0839C01D0838C4AB202D0E3
:10016E00839A01D0838A4AB002D0839801D08388C3
:10017E0037B002D0838401D083948386A4DF839624
:0C018E0037A002D095DF01D0A1DF1200E5
:0E019A00026A016A006A086A036A000E120017
:1001A8000A6A0350D8A40A800750D8A40A820A50C1
:1001B800D8B437EF01F0030AD8B4F0EF00F00AB072
:1001C800EBEF00F006AE35EF01F033EF01F002AED1
:1001D80033EF01F035EF01F00250800B0A6E029EFA
:1001E8000650800B069E0A18D8B401EF01F00A5099
:1001F800D8B433EF01F035EF01F00750035CD8B401
:100208000BEF01F0D8A027EF01F02DEF01F0065019
:10021800025CD8B415EF01F0D8A027EF01F02DEF5C
:1002280001F00550015CD8B41FEF01F0D8A027EF0A
:1002380001F02DEF01F00450005CD8B437EF01F065
:10024800D8B02DEF01F00A52D8B435EF01F033EFF2
:1002580001F00A52D8B433EF01F035EF01F0D8803D
:0E0268001200D8901200D880D8841200120024
:10027600086A096A000E07620364C0EF01F00250C3
:1002860006180A6E075003267E0ED8A051EF01F01D
:10029600035ED8B0C4EF01F055EF01F0035ED8A0BD
:1002A600C8EF01F0028E068E02C00EF001C00BF000
:1002B60000C00DF000500402F4CF0CF0015005020E
:1002C600F4CF00F0F3CF08F00402F3500C26F450FC
:1002D6000822000E00220D500502F3500C26F450A1
:1002E6000822000E002202500402F3500826F450A1
:1002F600002202500502016A000E0122F350002678
:10030600F45001220D500602F3500826F450002244
:10031600026A000E012202220B500602F35000264A
:10032600F4500122000E02220E500602F35001265E
:10033600F450022202BEA8EF01F00836003601365C
:1003460002360306D8B4C8EF01F0BBEF01F0D8803F
:10035600800E08640030000E002201220222D8A07E
:10036600BBEF01F0023201320032034AC4EF01F062
:100376000AAE029E000ECAEF01F0010E0BDFCAEFB5
:1003860001F0020EACDECAEF01F0040EB4DE12007C
:0C039600379046C04AF0C0DE37801200ED
:1003A200086A080E0C6E003408360450085ED8B095
:0E03B20002D00826D89000360C2EF5D7120087
:1003C0000C6A0E6A0250D8A4F9EF01F001C002F0E5
:1003D00000C001F0006A0E860250D8A4F9EF01F0C7
:1003E00001C002F0016A0E960E880250D8B40BEFDD
:1003F00002F00E50035ED8A4D8A010EF02F0D890FF
:1004000002BE15EF02F0003601360236032E00EF71
:1004100002F010EF02F0010E0C6EBFDE18EF02F0DA
:10042000020E0C6E6BDE18EF02F0040E0C6E73DE23
:020430001200B8
:1004320046C004F047C005F004C002F005C003F056
:10044200044A052A48C000F049C001F0484A492A36
:1004520000C0E9FF01C0EAFF02C0E1FF03C0E2FF02
:10046200EECFE6FF02C0E9FF03C0EAFFEE5201E071
:0C047200E3D746C000F047C001F01200C4
:10047E00959695949598959A959C959E839683942A
:10048E00839E839C839A839813DE12DE11DE838A09
:10049E008388838618DE83960BDE838614DE83962E
:1004AE0007DE838610DE839603DE839883860BDE5B
:1004BE008396FEDD838607DE8396839A838E8386FC
:1004CE0002DE8396F5DD839E83888386FCDD83962C
:1004DE0083988386F8DD8396EBDD8386F4DD839641
:1004EE0083888386F0DD8396E3DD83988386EBDD58
:1004FE008396838E838C838A83888386E4DD8396BA
:06050E00D7DD378012006A
:100514000900F5CFE6FF0006FBE10106F9E1120050
:100524000050086E0150006E016A026A036A0B6A89
:100534000C6A960E036E0A6A00C001F008C000F04F
:08054400086A026A3BDF1200A5
:10054C000FD0800E386E19D0C00E386E16D0940EA7
:10055C00386E13D0D40E386E10D0800E386E0DD08D
:10056C003850010AEEE03850020AEEE03850030A27
:10057C00EEE03850040AEEE0F0D73904006E385043
:10058C00002600C038F000C04AF0C3DD37903C6A4A
:10059C003C503A24E96E000E3B20EA6EEE520BE022
:1005AC003C503A24E96E000E3B20EA6EEECF46F04A
:0A05BC00ECDE3C2AEDD73780120078
:1005C600446A456A38C040F039C041F03AC042F04A
:1005D6003BC043F04350FF0A08E14250FF0A05E1E1
:1005E6004150FF0A02E14050FF0A0CE13CC046F0D0
:1005F6003DC047F0190E486E000E496E17DF030E18
:10060600006EE5D1010E3E6E42AE0ED0800E42184F
:10061600006E00C042F03E2A3CC0E1FF3DC0E2FF52
:100626002D0EE66E3C4A3D2A000E006E431808E188
:100636000050421805E10050411802E14050000AFE
:100646000BE13CC046F03DC047F01D0E486E000E63
:10065600496EECDE006ABBD14350FF0A08E1425006
:10066600000A05E14150000A02E14050000A0CE18F
:100676003CC046F03DC047F01F0E486E000E496E66
:10068600D5DE3EC000F0A3D1000E046E000E056E4E
:10069600000E066E7F0E076E40C000F041C001F0EE
:1006A60042C002F043C003F07CDD010ED8B0000E5C
:1006B600006E00521BE040C000F041C001F042C095
:1006C60002F043C003F0000E046E000E056E200E0D
:1006D600066E820E076ECCDD00C040F001C041F010
:1006E60002C042F003C043F04506CED7000E046EAA
:1006F600000E056E200E066E820E076E40C000F0DC
:1007060041C001F042C002F043C003F04ADD000ED2
:10071600D8B0010E006E00521BE040C000F041C090
:1007260001F042C002F043C003F0CD0E046ECC0EC1
:10073600056E4C0E066E7B0E076E9ADD00C040F00D
:1007460001C041F002C042F003C043F0452ACED7B3
:10075600FF0E4014086EFF0E4114096E7F0E421400
:100766000A6E000E43140B6E08C004F009C005F0B3
:100776000AC006F00BC007F00436049005360636AC
:100786000736000E4014006E000E4114016E000E76
:100796004214026EFF0E4314036E00C040F001C007
:1007A60041F002C042F003C043F004504010006E16
:1007B60005504110016E06504210026E075043105C
:1007C600036E00C040F001C041F002C042F003C019
:1007D60043F07F0E435C006E00C03FF0010E436E97
:1007E60000C004F040C000F041C001F042C002F079
:1007F60043C003F0045007E000360090013602368D
:100806000336FF0FF8D700C040F001C041F002C028
:1008160042F003C043F03CC0E1FF3DC0E2FF43505D
:10082600300FE66E3C4A3D2A800E4518006E800E5B
:10083600010A005C08E3800E060A006E800E451869
:10084600005C01E30AD03CC0E1FF3DC0E2FF2E0E92
:10085600E66E3C4A3D2A010E446E060E3F6E3F5040
:10086600000A54E0436A40C000F041C001F042C0B3
:1008760002F043C003F0003600900136023603361C
:1008860000360090013602360336405000264150AD
:100896000122425002224350032200C040F001C010
:1008A60041F002C042F003C043F040C000F041C036
:1008B60001F042C002F043C003F00036009001365A
:1008C6000236033600C040F001C041F002C042F0DB
:1008D60003C043F03CC0E1FF3DC0E2FF4350300F90
:1008E600E66E3C4A3D2A4450000A0EE14506455054
:1008F600000A0AE13CC0E1FF3DC0E2FF2E0EE66EB3
:100906003C4A3D2A010E446E3F06A9D7FF0E3C2401
:10091600E96EFF0E3D20EA6EEE50300A05E1010E4B
:100926003C5E000E3D5AF2D7FF0E3C24E96EFF0EE8
:100936003D20EA6EEE502E0A04E1010E3C5E000EEA
:100946003D5A4550000A3DE03CC0E1FF3DC0E2FF94
:10095600650EE66E3C4A3D2A800E4518006E800EF6
:10096600000A005C0BE23CC0E1FF3DC0E2FF2D0E39
:10097600E66E3C4A3D2A45500008456E45C03FF0AC
:10098600455009080EE20A0E046E3FC000F006DD6F
:100996003CC0E1FF3DC0E2FF0050300FE66E3C4A2E
:1009A6003D2A0A0E046E3FC000F0F8DC08C000F0D5
:1009B6003CC0E1FF3DC0E2FF0050300FE66E3C4A0E
:1009C6003D2A3CC0E1FF3DC0E2FFE66A006A120034
:1009D60003EC05F09280410EC26ECE0EC16E9E9C57
:1009E6009D8C9F9CF28CF28E47DDC284FFD7FFD789
:100A060010EE19F0100E006E010E016EF60EF66E67
:0E0A1600090EF76E000EF86E8AEC02F0120068
:0409F6004E614E0000
:0209FA003000CB
:0409FC00494E46001A
:020A00000000F4
:040A020000000000F0
:020000040030CA
:0D000100220F0EFF0181FF0FC00FE00F4026
:00000001FF
