:0400000062EF01F0BA
:1000080000C018F001C017F00CC016F00DC015F0B4
:100018001A50640AD8B41A6A1950000A13E11AC0AF
:100028001EF01BC01FF0000E206E0FD9010E1E6EB1
:10003800010E1F6E1BC020F0000E216E76D81A2A02
:10004800192A01D0196A81CF1CF0F29018C000F06B
:0E00580017C001F016C00CF015C00DF011001D
:0600660000000000120082
:10006C000F0E0C6E470E0D6E0D2EFED70C2EFCD700
:06007C000000000012006C
:0A008200210E0D6E0D2EFED71200A8
:10008C0025BE02D0839E01D0838E25BC02D0839CDA
:10009C0001D0838C25BA02D0839A01D0838A25B8EB
:1000AC0002D0839801D083881DB002D0838401D004
:1000BC0083948386D2DF839625B602D0839E01D0AB
:1000CC00838E25B402D0839C01D0838C25B202D0C0
:1000DC00839A01D0838A25B002D0839801D083887B
:1000EC001DB002D0838401D083948386B6DF8396BF
:0C00FC001DA002D0B5DF01D0BEDF120055
:10010800086A080E0C6E003408360450085ED8B031
:0E01180002D00826D89000360C2EF5D7120023
:0C0126001D9024C025F0AFDF1D801200EA
:100132000FD0800E1E6E19D0C00E1E6E16D0940EF9
:100142001E6E13D0D40E1E6E10D0800E1E6E0DD0F9
:100152001E50010AEEE01E50020AEEE01E50030A93
:10016200EEE01E50040AEEE0F0D71F04006E1E50AF
:10017200002600C01EF000C025F087DF1D90226A15
:1001820022502024E96E000E2120EA6EEE520BE08E
:1001920022502024E96E000E2120EA6EEECF24F0D8
:0A01A200C1DF222AEDD71D801200F4
:1001AC000900F5CFE6FF0006FBE10106F9E11200BC
:1001BC00959695949598959A959C959E83968394EF
:1001CC00839E839C839A83984BDF4ADF49DF838A23
:1001DC008388838642DF839643DF83863EDF839664
:1001EC003FDF83863ADF83963BDF8398838635DF58
:1001FC00839636DF838631DF8396839A838E83865C
:10020C002CDF83962DDF839E8388838626DF83965F
:10021C008398838622DF839623DF83861EDF839673
:10022C00838883861ADF83961BDF8398838615DF8A
:10023C008396838E838C838A838883860EDF839652
:06024C000FDF1D8012000F
:10025200216A030E215C0AE221501F24E16E000E86
:100262002020E26E200EE66E212AF3D721501F24B1
:10027200E16E000E2020E26EE66A210621501F2464
:10028200226E000E2020236E0A0E046E1EC000F0A5
:100292003ADF08C000F0300E002622C0E1FF23C082
:1002A200E2FF00C0E6FF0A0E046E1EC000F02BDF64
:1002B20000C01EF00050000A01E102D02106DED784
:0202C200120028
:1002C400196A1A6AF00E936E816AF19E81CF1CF04E
:0C02D400F290F286F28E70DFFFD7FFD7A9
:020000040030CA
:0D000100220F0EFF0181FF0FC00FE00F4026
:00000001FF
