:040000001CEF00F001
:1000080000C015F0F292172A17500A0A02E1176A7F
:10001800162A16500A0AD8B4166A15C000F011003C
:100028000900F5CFE6FF0006FBE10106F9E1120041
:10003800166A176A3F0E186E060E196E5B0E1A6E58
:100048004F0E1B6E660E1C6E6D0E1D6E7D0E1E6EA7
:10005800070E1F6E7F0E206E670E216E926A806AF1
:10006800956A836A93809392F19EF292F288F28E57
:10007800020E806E180EE96E000EEA6E1750E92621
:10008800D8B0EA2AEECF83FF340E0C6EF10E0D6E57
:100098000D2EFED70C2EFCD700000000010E806E3E
:1000A800180EE96E000EEA6E1650E926D8B0EA2A54
:1000B800EECF83FF340E0C6EF10E0D6E0D2EFED7B3
:0C00C8000C2EFCD700000000D3D7FFD79F
:020000040030CA
:0D000100220F0EFF0181FF0FC00FE00F4026
:00000001FF
