:04000000E4EF00F039
:1000080000C015F0F2A2D0D01650000A50E1828646
:10001800030E0B6E080E0C6E770E0D6E0D2EFED7AE
:100028000C2EFCD70B2EFAD78292030E0B6E080EFD
:100038000C6E770E0D6E0D2EFED70C2EFCD70B2EE8
:10004800FAD78280030E0B6E080E0C6E770E0D6EBB
:100058000D2EFED70C2EFCD70B2EFAD78294030E4A
:100068000B6E080E0C6E770E0D6E0D2EFED70C2E35
:10007800FCD70B2EFAD78282030E0B6E080E0C6E7D
:10008800770E0D6E0D2EFED70C2EFCD70B2EFAD741
:100098008296030E0B6E080E0C6E770E0D6E0D2EEB
:1000A800FED70C2EFCD70B2EFAD7162A7DD08292BB
:1000B800030E0B6E080E0C6E770E0D6E0D2EFED70E
:1000C8000C2EFCD70B2EFAD782908286030E0B6E6D
:1000D800080E0C6E770E0D6E0D2EFED70C2EFCD76B
:1000E8000B2EFAD782968284030E0B6E080E0C6EC6
:1000F800770E0D6E0D2EFED70C2EFCD70B2EFAD7D1
:1001080082948282030E0B6E080E0C6E770E0D6EB3
:100118000D2EFED70C2EFCD70B2EFAD7829282809A
:10012800030E0B6E080E0C6E770E0D6E0D2EFED79D
:100138000C2EFCD70B2EFAD782908286030E0B6EFC
:10014800080E0C6E770E0D6E0D2EFED70C2EFCD7FA
:100158000B2EFAD782968284030E0B6E080E0C6E55
:10016800770E0D6E0D2EFED70C2EFCD70B2EFAD760
:1001780082948282030E0B6E080E0C6E770E0D6E43
:100188000D2EFED70C2EFCD70B2EFAD78280030E2D
:100198000B6E080E0C6E770E0D6E0D2EFED70C2E04
:1001A800FCD70B2EFAD7162AF29215C000F01100D0
:1001B8000900F5CFE6FF0006FBE10106F9E11200B0
:1001C800166A946A93808290829682828284F292DE
:0A01D800F288F28EF19EFFD7FFD7E8
:020000040030CA
:0D000100220F0EFF0181FF0FC00FE00F4026
:00000001FF
