:040000000DEF0AF006
:1000080000C018F001C017F00CC016F00DC015F0B4
:10001800F0A206D03E2A3E500708D8A03E6AF092C9
:10002800F2A406D0F2940B0ED76EDC0ED66EC28404
:100038009EAC3CD0C4CF01F0006AC3500026000E2D
:100048000122B1EC06F000C019F001C01AF002C09C
:100058001BF003C01CF000C060F001C061F002C0DA
:1000680062F003C063F0C5EC06F000C019F001C0EF
:100078001AF002C01BF003C01CF000C060F001C001
:1000880061F002C062F003C063F0510E646E000EAE
:10009800656EFEEC07F0020E6E6E010E6F6E510E6D
:1000A800706E000E716E75EC05F09E9C18C000F025
:0E00B80017C001F016C00CF015C00DF01100BD
:1000C6000F0E0C6E470E0D6E0D2EFED70C2EFCD7A6
:0600D60000000000120012
:0600DC000000000012000C
:0A00E200210E0D6E0D2EFED7120048
:0800EC000AAE029E000E120094
:0E00F400026A016A006A086A036A000E1200BE
:1001020074BE02D0829E01D0828E74BC02D0829CC8
:1001120001D0828C74BA02D0829A01D0828A74B8D9
:1001220002D0829801D082885FB002D0828401D04E
:1001320082948286D2DF829674B602D0829E01D0E9
:10014200828E74B402D0829C01D0828C74B202D0AE
:10015200829A01D0828A74B002D0829801D08288B9
:100162005FB002D0828401D082948286B6DF82960A
:0C0172005FA002D0A7DF01D0B3DF1200B5
:10017E000B820BAEC9EF00F00368026801680068DD
:08018E000A360232FF0E1200D6
:100196000B840BAED6EF00F0010E036E026A016A05
:0A01A600006A0A360232FF0E120052
:0C01B0005F9073C074F0A5DF5F80120048
:1001BC000CB020EF01F00CA2C6EF01F00E6A000E9D
:1001CC00026437EF01F0F00E0214D8A402EF01F034
:1001DC00023A01380F0B02260138F00B016E003881
:1001EC000F0B01260038F00B006E08380F0B0026A1
:1001FC000838F00B086E0E84D89002BE1BEF01F08D
:10020C0008360036013602360E2A02BE1BEF01F00C
:10021C0008360036013602360E2A02BE1BEF01F0FC
:10022C0008360036013602360E2A0E500364BCEF37
:10023C0001F0035E0BBC08AEC1EF01F0D880800E5C
:10024C0008640030000E002201220222D8A0C1EF67
:10025C0001F0023201320032034AC6EF01F0C1EF65
:10026C0001F001C002F000C001F008C000F0086A03
:10027C00000E0E8602646EEF01F0F00E0214D8A48C
:10028C0056EF01F0023A01380F0B02260138F00B41
:10029C00016E00380F0B01260038F00B006E0E8437
:1002AC00D89002BE1BEF01F00036013602360E2A42
:1002BC0002BE1BEF01F00036013602360E2A02BEDA
:1002CC001BEF01F00036013602360E2A1BEF01F04F
:1002DC0001C002F000C001F0006A000E0E960E88FC
:1002EC0002649BEF01F0F00E0214D8A486EF01F02B
:1002FC00023A01380F0B02260138F00B016E0E8406
:10030C00D89002BE1BEF01F0013602360E2A02BE57
:10031C001BEF01F0013602360E2A02BE1BEF01F074
:10032C00013602360E2A1BEF01F001C002F0016A01
:10033C00000E0E860264CBEF01F0F00E0214D8A46E
:10034C00AAEF01F0023A0E84D89002BE1BEF01F026
:10035C0002360E2A02BE1BEF01F002360E2A02BE36
:10036C001BEF01F002360E2A1BEF01F0010E0C6E92
:10037C000CDFCEEF01F0020E0C6EB2DECEEF01F010
:10038C00040E0C6EF6DECEEF01F0080E0C6EACDE39
:02039C0012004D
:08039E000B6A0B86FF0E120032
:1003A6000A6A0350D8A40A800750D8A40A820A50C1
:1003B600D8B436EF02F0030AD8B4EFEF01F00AB072
:1003C600EAEF01F006AE34EF02F032EF02F002AED1
:1003D60032EF02F034EF02F00250800B0A6E029EFA
:1003E6000650800B069E0A18D8B400EF02F00A5099
:1003F600D8B432EF02F034EF02F00750035CD8B401
:100406000AEF02F0D8A026EF02F02CEF02F0065019
:10041600025CD8B414EF02F0D8A026EF02F02CEF5D
:1004260002F00550015CD8B41EEF02F0D8A026EF0A
:1004360002F02CEF02F00450005CD8B436EF02F064
:10044600D8B02CEF02F00A52D8B434EF02F032EFF3
:1004560002F00A52D8B432EF02F034EF02F0D8803C
:0E0466001200D8901200D880D8841200120024
:10047400086A080E0C6E003408360450085ED8B0C2
:0E04840002D00826D89000360C2EF5D71200B4
:100492000450000A12E10550000A0FE10650000A5A
:1004A2000CE10750000A09E1FF0E006EFF0E016E1B
:1004B2007F0E026EFF0E036EA4D0086A096A07500F
:1004C200D8B4F4EF02F00350D8B4F8EF02F00250BF
:1004D20006180A6E028E068E0E6A02C008F001C06D
:1004E2000CF000C00DF004500D5E0550D8A0053C84
:1004F2000C5E0650D8A0063C085E086A0C6A0D6ABB
:10050200D8A08BEF02F0D8900232013200320832CA
:10051200010E0E6E0750035ED8A098EF02F07E0E19
:100522000E240326D8B0FCEF02F09EEF02F07E0EFE
:100532000E240326D8A000EF03F0180E0B6E0D3622
:100542000C3608360036013602360E360450005E8E
:100552000550D8A0053C015E0650D8A0063C025EBC
:1005620006340E120EA0B9EF02F00D80C4EF02F0B5
:10057200045000260550D8B0053C01260650D8B0DC
:10058200062802260D900B2EA0EF02F0EAEF02F0F1
:10059200D8900036013602360E360450005E055001
:1005A200D8A0053C015E0650D8A0063C025E063487
:1005B2000E10010B0D26D8B00C2AD8B4082AD8A4E4
:1005C200EAEF02F008320C320D32032AD8B4FCEF03
:1005D20002F00AAE089E0850026E0C50016E0D50D9
:1005E200006E02EF03F0010ED9DE02EF03F0020EFD
:1005F20080DD02EF03F0040EC1DD02EF03F0080E0E
:04060200C9DD12003C
:100606006EC004F06FC005F004C002F005C003F030
:10061600044A052A70C000F071C001F0704A712AC0
:1006260000C0E9FF01C0EAFF02C0E1FF03C0E2FF2C
:10063600EECFE6FF02C0E9FF03C0EAFFEE5201E09B
:0C064600E3D76EC000F06FC001F012009E
:100652000C6A0E6A0250D8A442EF03F001C002F005
:1006620000C001F0006A0E860250D8A442EF03F0E7
:1006720001C002F0016A0E960E880250D8B454EFFF
:1006820003F00E50035ED8A4D8A059EF03F0D8901F
:1006920002BE5EEF03F0003601360236032E49EF4A
:1006A20003F059EF03F0010E0C6E23DD61EF03F04E
:1006B200020E0C6E6FDD61EF03F0040E0C6E15DDA1
:0206C200120024
:1006C400025006180E6E086A096A0B6A0350076422
:1006D40055EF04F006500A6E068E028E03500B6E20
:1006E4000750036E000E0B64A5EF03F00B50075E7A
:1006F400D8B446EF04F0070E076414EF04F0075E65
:1007040000C008F001C000F002C001F0026A074E08
:1007140046EF04F00764E9EF03F0075E00C008F059
:1007240001C000F0016A074E46EF04F00764C7EF0A
:1007340003F0075E00C008F0006A074E46EF04F0BD
:100744000764AEEF03F00AC002F005C001F004C074
:1007540000F0086A72EF05F0030E0764B9EF03F0C6
:10076400075E08380F0B086E074E46EF04F0D8906A
:100774000832074E46EF04F0D8900832074E46EF91
:1007840004F0D890083246EF04F0030E0764D8EF63
:1007940003F0075E08380F0B086E0038F00B0826CC
:1007A40000380F0B006E074E46EF04F0D89000326D
:1007B4000832074E46EF04F0D89000320832074E54
:1007C40046EF04F0D8900032083246EF04F0030EEE
:1007D400076400EF04F0075E08380F0B086E00385A
:1007E400F00B082600380F0B006E0138F00B0026C2
:1007F40001380F0B016E074E46EF04F0D89001321A
:1008040000320832074E46EF04F0D890013200322D
:100814000832074E46EF04F0D89001320032083215
:1008240046EF04F0030E076431EF04F0075E083866
:100834000F0B086E0038F00B082600380F0B006E03
:100844000138F00B002601380F0B016E0238F00B53
:10085400012602380F0B026E074E46EF04F0D890C3
:100864000232013200320832074E46EF04F0D890CB
:100874000232013200320832074E46EF04F0D890BB
:100884000232013200320832096A000E0EAE3AEF2B
:1008940005F0081E001E011E021E082A0022012265
:1008A40002223AEF05F00750D8A45BEF04F072EF90
:1008B40005F0096A02C00AF0028E068E0750035C36
:1008C400076ED8B42DEF05F0070E0764FBEF04F0B4
:1008D400075E0450096E0550046E0650056E066AE4
:1008E400074E2DEF05F0070E0764D0EF04F0075E06
:1008F4000450096E0550046E056A074E2DEF05F08D
:10090400070E0764AEEF04F0075E0450096E046A34
:10091400074E2DEF05F0070E076495EF04F00AC0AB
:1009240002F072EF05F0030E0764A0EF04F0075E17
:1009340009380F0B096E074E2DEF05F0D8900932D8
:10094400074E2DEF05F0D8900932074E2DEF05F034
:10095400D89009322DEF05F0030E0764BFEF04F0C1
:10096400075E09380F0B096E0438F00B09260438AA
:100974000F0B046E074E2DEF05F0D89004320932A8
:10098400074E2DEF05F0D89004320932074E2DEFB3
:1009940005F0D890043209322DEF05F0030E0764F8
:1009A400E7EF04F0075E09380F0B096E0438F00B0B
:1009B400092604380F0B046E0538F00B042605389D
:1009C4000F0B056E074E2DEF05F0D890053204325B
:1009D4000932074E2DEF05F0D89005320432093262
:1009E400074E2DEF05F0D8900532043209322DEF71
:1009F40005F0030E076418EF05F0075E09380F0BC6
:100A0400096E0438F00B092604380F0B046E053800
:100A1400F00B042605380F0B056E0638F00B05267F
:100A240006380F0B066E074E2DEF05F0D8900632F0
:100A3400053204320932074E2DEF05F0D890063204
:100A4400053204320932074E2DEF05F0D8900632F4
:100A5400053204320932086A000E0EAE3AEF05F090
:100A6400091E041E051E061E092A0422052206224A
:100A74000950082604500022055001220650022283
:100A84000EBE51EF05F0D8A060EF05F0023201323E
:100A940000320832033E60EF05F06CEF05F0D8B089
:100AA40066EF05F0000E081E001E011E021E082A35
:100AB4000022012202220A7E66EF05F0010E0C6E6E
:100AC400DEEC00F074EF05F0020E0C6EDEEC00F0CC
:100AD40074EF05F0040E0C6EBFEC00F074EF05F03B
:060AE400000E0C6E120072
:100AEA000FD0800E6E6E19D0C00E6E6E16D0940E98
:100AFA006E6E13D0D40E6E6E10D0800E6E6E0DD048
:100B0A006E50010AEEE06E50020AEEE06E50030AE1
:100B1A00EEE06E50040AEEE0F0D76F04006E6E50FD
:100B2A00002600C06EF000C074F081EC00F05F9007
:100B3A00726A72507024E96E000E7120EA6EEE52EB
:100B4A000CE072507024E96E000E7120EA6EEECF4E
:0E0B5A0073F0D8EC00F0722AECD75F80120026
:100B6800086A096A000E0762036439EF06F002504A
:100B780006180A6E075003267E0ED8A0CAEF05F0A5
:100B8800035ED8B03EEF06F0CEEF05F0035ED8A0C6
:100B980043EF06F0028E068E02C00EF001C00BF085
:100BA80000C00DF000500402F4CF0CF00150050213
:100BB800F4CF00F0F3CF08F00402F3500C26F45001
:100BC8000822000E00220D500502F3500C26F450A6
:100BD8000822000E002202500402F3500826F450A6
:100BE800002202500502016A000E0122F35000267D
:100BF800F45001220D500602F3500826F45000224A
:100C0800026A000E012202220B500602F35000264F
:100C1800F4500122000E02220E500602F350012663
:100C2800F450022202BE21EF06F0083600360136E3
:100C380002360306D8B443EF06F034EF06F0D88046
:100C4800800E08640030000E002201220222D8A083
:100C580034EF06F0023201320032034A3EEF06F06A
:100C68000AAE029E000E46EF06F0010E7AEC00F086
:100C780046EF06F0020EBFEC00F046EF06F0040E59
:060C8800CBEC00F01200AD
:100C8E00949694949498949A949C949E829682941A
:100C9E00829E829C829A829863EC00F063EC00F054
:100CAE0063EC00F0828A828882866EEC00F0829677
:100CBE0063EC00F082866EEC00F0829663EC00F03E
:100CCE0082866EEC00F0829663EC00F0829882864B
:100CDE006EEC00F0829663EC00F082866EEC00F013
:100CEE008296829A828E82866EEC00F0829663ECF9
:100CFE0000F0829E828882866EEC00F08296829848
:100D0E0082866EEC00F0829663EC00F082866EECCA
:100D1E0000F08296828882866EEC00F0829663ECFA
:100D2E0000F0829882866EEC00F08296828E828C23
:100D3E00828A828882866EEC00F0829663EC00F0E6
:040D4E005F801200B0
:100D52000900F5CFE6FF0006FBE10106F9E112000A
:100D62000050086E0150006E016A026A036A0B6A43
:100D72000C6A960E036E0A6A00C001F008C000F009
:080D8200086A026A65DC120038
:100D8A00C60E006E830E016E5B0E026E7B0E036E44
:100D9A0060C004F061C005F062C006F063C007F0ED
:100DAA00DEDE000E046E000E056E280E066E820E42
:100DBA00076E83DC00C060F001C061F002C062F01F
:100DCA0003C063F03E50000A09E1010E6E6E010E87
:100DDA006F6E3A0E706E000E716E82DE3E50010A20
:100DEA0023E1010E6E6E010E6F6E3F0E706E000EE5
:100DFA00716E76DE000E046E910E056E5C0E066E46
:100E0A00810E076E60C000F061C001F062C002F09E
:100E1A0063C003F049EC02F000C060F001C061F069
:100E2A0002C062F003C063F03E50020A23E1010EE1
:100E3A006E6E010E6F6E4D0E706E000E716E50DE8C
:100E4A00660E046EA60E056E4A0E066E850E076EB7
:100E5A0060C000F061C001F062C002F063C003F03C
:100E6A0049EC02F000C060F001C061F002C062F01B
:100E7A0003C063F03E50030A23E1010E6E6E010EB9
:100E8A006F6E480E706E000E716E2ADECD0E046E05
:100E9A00CC0E056E4C0E066E7B0E076E60C000F01F
:100EAA0061C001F062C002F063C003F049EC02F0D5
:100EBA0000C060F001C061F002C062F003C063F0DC
:100ECA003E50040A23E1010E6E6E010E6F6E430E50
:100EDA00706E000E716E04DE8D0E046E7A0E056E53
:100EEA00080E066E7C0E076E60C000F061C001F04D
:100EFA0062C002F063C003F049EC02F000C060F087
:100F0A0001C061F002C062F003C063F03E50050AFE
:100F1A0023E1010E6E6E010E6F6E350E706E000EBD
:100F2A00716EDEDD6F0E046E120E056E030E066E16
:100F3A00750E076E60C000F061C001F062C002F079
:100F4A0063C003F049EC02F000C060F001C061F038
:100F5A0002C062F003C063F03E50060A23E1010EAC
:100F6A006E6E010E6F6E240E706E000E716EB8DD1D
:100F7A00F80E046E130E056E440E066E850E076E8D
:100F8A0060C000F061C001F062C002F063C003F00B
:100F9A0049EC02F000C060F001C061F002C062F0EA
:100FAA0003C063F03E50070A23E1010E6E6E010E84
:100FBA006F6E1D0E706E000E716E92DDC30E046EA2
:100FCA00F50E056E1C0E066E820E076E60C000F0EE
:100FDA0061C001F062C002F063C003F049EC02F0A4
:100FEA0000C060F001C061F002C062F003C063F0AB
:020FFA001200E3
:100FFC006C6A6D6A60C068F061C069F062C06AF0CA
:10100C0063C06BF06B50FF0A08E16A50FF0A05E100
:10101C006950FF0A02E16850FF0A0DE164C06EF0EE
:10102C0065C06FF0310E706E000E716E03EC03F044
:10103C00030E006EEBD1010E666E6AAE0ED0800E02
:10104C006A18006E00C06AF0662A64C0E1FF65C0D1
:10105C00E2FF2D0EE66E644A652A000E006E6B18D8
:10106C0008E100506A1805E10050691802E1685067
:10107C00000A0CE164C06EF065C06FF02F0E706E4C
:10108C00000E716E03EC03F0006AC0D16B50FF0AC6
:10109C0008E16A50000A05E16950000A02E1685053
:1010AC00000A0DE164C06EF065C06FF02B0E706E1F
:1010BC00000E716E03EC03F066C000F0A7D1000EB9
:1010CC00046E000E056E000E066E7F0E076E68C075
:1010DC0000F069C001F06AC002F06BC003F0D3EC01
:1010EC0001F0010ED8B0000E006E00521BE068C07B
:1010FC0000F069C001F06AC002F06BC003F0000E92
:10110C00046E000E056E200E066E820E076E26DD36
:10111C0000C068F001C069F002C06AF003C06BF057
:10112C006D06CDD7000E046E000E056E200E066EF9
:10113C00820E076E68C000F069C001F06AC002F050
:10114C006BC003F0D3EC01F0000ED8B0010E006EB2
:10115C0000521BE068C000F069C001F06AC002F0E8
:10116C006BC003F0CD0E046ECC0E056E4C0E066EED
:10117C007B0E076EF3DC00C068F001C069F002C0A2
:10118C006AF003C06BF06D2ACDD7FF0E6814086EA1
:10119C00FF0E6914096E7F0E6A140A6E000E6B1432
:1011AC000B6E08C004F009C005F00AC006F00BC0B5
:1011BC0007F004360490053606360736000E681420
:1011CC00006E000E6914016E000E6A14026EFF0EA2
:1011DC006B14036E00C068F001C069F002C06AF0C5
:1011EC0003C06BF004506810006E05506910016E5E
:1011FC0006506A10026E07506B10036E00C068F048
:10120C0001C069F002C06AF003C06BF07F0E6B5C2A
:10121C00006E00C067F0010E6B6E00C004F068C079
:10122C0000F069C001F06AC002F06BC003F004501A
:10123C0007E000360090013602360336FF0FF8D770
:10124C0000C068F001C069F002C06AF003C06BF026
:10125C0064C0E1FF65C0E2FF6B50300FE66E644A7C
:10126C00652A800E6D18006E800E010A005C08E382
:10127C00800E060A006E800E6D18005C01E30AD029
:10128C0064C0E1FF65C0E2FF2E0EE66E644A652A7B
:10129C00010E6C6E060E676E6750000A54E06B6AA6
:1012AC0068C000F069C001F06AC002F06BC003F0C6
:1012BC0000360090013602360336003600900136B7
:1012CC000236033668500026695001226A50022209
:1012DC006B50032200C068F001C069F002C06AF0D4
:1012EC0003C06BF068C000F069C001F06AC002F086
:1012FC006BC003F00036009001360236033600C096
:10130C0068F001C069F002C06AF003C06BF064C001
:10131C00E1FF65C0E2FF6B50300FE66E644A652A50
:10132C006C50000A0EE16D066D50000A0AE164C0B3
:10133C00E1FF65C0E2FF2E0EE66E644A652A010EDF
:10134C006C6E6706A9D7FF0E6424E96EFF0E65204C
:10135C00EA6EEE50300A05E1010E645E000E655A2D
:10136C00F2D7FF0E6424E96EFF0E6520EA6EEE5094
:10137C002E0A04E1010E645E000E655A6D50000ADF
:10138C003FE064C0E1FF65C0E2FF650EE66E644AB3
:10139C00652A800E6D18006E800E000A005C0BE250
:1013AC0064C0E1FF65C0E2FF2D0EE66E644A652A5B
:1013BC006D5000086D6E6DC067F06D5009080FE23E
:1013CC000A0E046E67C000F03AEC02F064C0E1FF54
:1013DC0065C0E2FF0050300FE66E644A652A0A0EC3
:1013EC00046E67C000F03AEC02F008C000F064C074
:1013FC00E1FF65C0E2FF0050300FE66E644A652ADB
:0E140C0064C0E1FF65C0E2FFE66A006A1200FC
:10141A0045EC0AF093849680F19EF29CD09EF18866
:10142A00F092F088800EC16EA90EC26E9E9C9D8CB1
:10143A00F294F28AF28E26DC840ED56E0B0ED76EEB
:08144A00DC0ED66EFFD7FFD7C0
:10148A0010EE19F0380E006E010E016E520EF66E55
:0E149A00140EF76E000EF86EA9EC06F01200AC
:041452000000000096
:071456006B702F636D320083
:07145D006B672F636D320085
:04146400494E4600A7
:02146800300052
:04146A004E614E0081
:05146E004E2F6D32005D
:041473006B50610059
:011477000074
:041478005073690044
:05147C006D6D486700E2
:051481006D42617200E4
:0414860041746D0040
:020000040030CA
:0D000100220F0EFF0181FF0FC00FE00F4026
:00000001FF
